:020000040800F2
:1000000078050020C5000008951900081718000899
:1000100000000000000000000000000000000000E0
:100020000000000000000000000000009D1A000811
:100030000000000000000000971900089F1A000847
:10004000D7000008D7000008D7000008D700000834
:10005000D7000008D7000008D7000008D700000824
:1000600000000000D7000008D7000008D7000008F3
:10007000D7000008D7000008D7000008D700000804
:10008000D70000080000000000000000D7000008B2
:1000900000000000D7000008D7000008D7000008C3
:1000A00000000000D700000800000000D700000892
:1000B0000348854600F042FB00480047E928000855
:1000C000780500200448804704480047FEE7FEE723
:1000D000FEE7FEE7FEE7FEE7111B0008B10000089F
:1000E00030B50B46014600202022012409E00D46D0
:1000F000D5409D4205D31D469540491B2546954058
:1001000040191546521E002DF1DC30BDF0B51FB46C
:100110000646002082B005464024019100901BE075
:10012000019922460F46304600F020F8049A059BBC
:10013000801A994110D310461946224600F0E6F87D
:10014000361A8F410197224601200021009F00F0BE
:10015000DDF838184D4100902046641E0028DFDC91
:10016000019B00982946324607B0F0BD10B5202A01
:1001700004DB0846203AD040002110BD0B46D34096
:10018000D0402024A21A91400843194610BDD2B293
:1001900001E00270401C491EFBD270470022F6E7C6
:1001A00010B513460A4604461946FFF7F0FF2046ED
:1001B00010BD421C0178401C0029FBD1801A7047F9
:1001C000024670B54A40D30FDB0740002DD04A00ED
:1001D0002AD0010E140E000212020919400A520A16
:1001E0008418E50104465443000A120A2E045043C1
:1001F000A4194219200CC543AA18120C0125AD03FD
:10020000521C521912047F39240400D0521C10438E
:1002100001D44000491EC2B20C06C0092018401C7F
:100220004008802A02D003E0002070BD4008400052
:10023000002900DA0020184370BD70B502464A401C
:10024000D50F40004A00ED0740085208002814D09E
:10025000002A12D0C40DD30D41020120C005520264
:10026000490A520AE41A091812187D34914201D33E
:10027000641C00E04900002C01DA002070BD00235E
:10028000914201D3891A0343400849000028F7D15D
:1002900000290AD0914202D10121C90705E091420B
:1002A00001D2012101E00121C943E005C018401934
:1002B00000F03CF870BD420005D04200120E5242E0
:1002C0008A4201DB00207047C90508187047C21731
:1002D000C10F504010B54018CA079623002100F006
:1002E0002DF810BDC20FD207400040080BD0C10D41
:1002F0000723DB01C91840020905400A1143C2085F
:1003000040071143704700200146704710B5202A6E
:1003100004DB0146203A9140002010BD914020238B
:100320009C1A0346E3401943904010BD002904DAAB
:10033000401C490001D140084000704770B40024BF
:10034000050C05D11024000402D1002921D011246C
:10035000050E01D100020834050F01D10001241D52
:10036000850F01D18000A41C002801DB4000641C23
:10037000002908D020252E1B0D46F540A14000D0B5
:1003800001212943084301061B1B000ADB1D02D57E
:10039000002070BC7047DB05181880180029F8DAB7
:1003A000401C4900F5D170BC400840007047000077
:1003B000F0B507460846584087B0C00F0490480083
:1003C0000E46590040084908BC1A884105D23846F3
:1003D00031461E4617460B46024658004008104359
:1003E0004CD0300D039040055900400D490D05904B
:1003F000401A0290402872DA18030121000B090507
:100400000843019004980092002805D001995242B7
:100410000020884100920190029840210A1A019917
:100420000098FFF773FF05460C466B4607CB00F0BC
:1004300097F9C0197141039A0E0D0023D717564042
:100440001A467A40164344D0049A002A2DD0029AC4
:10045000012A039A15DC1205C01A914101263605BE
:10046000001C7141D20F059ED207009301920296A3
:100470002A46234600F094F907B0F0BD38463146CD
:10048000FAE71605224A0F46B218C01AB7410121F1
:100490000905001C4F4100187F4111461818794189
:1004A000E20F10436D19644113E0E2076D08154334
:1004B0006408C2071443039A01261205C01A914129
:1004C0003605001C7141CE07400830434908C0186A
:1004D00051412A46234600F056F9CDE7FFE704983C
:1004E00001224000C117121A00238B4104983146A3
:1004F000C417381AA141EEE730B40124E407634081
:1005000030BC55E730B40124E407614030BC4FE70C
:100510000000E0FFF0B51FB488B00B9909980024E3
:1005200048400999C00F490049080991C0070B9933
:100530000090490049080B9109990898A64608437C
:100540001CD00B990A98084318D009980124400040
:10055000420D4800410D099824050003000B20437B
:1005600009900B980003000B20430B9050181C4976
:100570004018002201901446104605E00020014674
:100580000DB0F0BD032801DA034600E003239C46CA
:10059000C11A0AAE0AE05F0008ADED5B4F00F75BE1
:1005A0007D430027AA187C41491C5B1E6145F2DD92
:1005B000410004AB5A522104120C0A43240C401C83
:1005C0000828DFDB019802900099704601910090A5
:1005D000059B049A0799069800F0E2F8D0E700001E
:1005E0000DFCFFFFF0B50C465C4085B0E40FE4075E
:1005F00003944C00002664085900944649080246BA
:100600000296224321D062460A431ED06200570D53
:100610004A000E032303550D012402462C492405EC
:10062000781B1B0B360B4018234326436146009072
:100630001C46501AB44103D30098401C009002E0BD
:10064000921800985B41002803DA0020014605B0AB
:10065000F0BD0020012109050746864611E06446E9
:100660001D46141BB54106D36546521BB341744663
:1006700007430C43A646CD07400849082843921873
:100680005B4105460D43EAD11046184313D060463E
:10069000194650407140084306D06046101AB341D5
:1006A00006D20122002306E000220123DB0702E03C
:1006B0000122D2435310009874460105381C614151
:1006C000029C039D0019694100F05DF8BFE700003E
:1006D000FD0300004A0009030123090B1B05194310
:1006E0000A4B10B5520D9A4202DA0020014610BDA5
:1006F000064B34339A4203DC9A1AFFF737FD10BDDC
:10070000034BD218FFF702FE10BD0000FF030000EC
:10071000CDFBFFFF10B5002904DB0124E4074042B4
:100720008C412146002B04DB1C460123DB0752428F
:10073000A341994200D1904210BD0000064C012512
:10074000064E05E0E36807CC2B430C3C9847103479
:10075000B442F7D3FFF7B0FC182900083829000885
:1007600010B5202A06DBCB170846203A1041C117E6
:100770000B4306E00B461341D0402024A21A9140BF
:100780000843194610BD10B5002B08DA0024401CA0
:10079000614192185B411A4301D14008400010BDED
:1007A000F0B51FB482B005460C0003D0084601F036
:1007B000B3FB02E001F0B0FB20300246009021467E
:1007C0002846FFF7A3FD049B059A04460F461843ED
:1007D0001143084314D0184610431BD00098402101
:1007E0000A1A18460599FFF7C1FC05460E46009AFD
:1007F00005990498FFF78AFD084305D0012004E01D
:100800002046394607B0F0BD0020C11705430E430E
:100810002C43374300990E986305401A7905E40A82
:1008200000220C43FD0A0A3002D500200146E9E708
:100830000105101969410C9C0D9D00196941FFF7D4
:10084000A2FFDFE7F8B50446002005460090480700
:10085000800E6946403008701646A1880022206844
:1008600000F0BBFA22460121684601F0D8F8224682
:100870003146684601F090F8A1880122206800F016
:10088000ACFA012E04D0022E05D0032E08D010E0C1
:10089000684605780DE0694608784978000207E067
:1008A0006946087849780004090208186946897879
:1008B0000D182846F8BD000038B501220421FFF7C5
:1008C000C1FF012209251402ED06009021462846A9
:1008D00000F083FA7D23DB0004226946084800F01B
:1008E00031FF00222146284600F077FA00980007E1
:1008F000000F092801D0012038BD002038BD0000BC
:10090000F400002010B501220021FFF79BFF802199
:10091000084201D1012010BD002010BD38B50446A9
:100920000DA000680090A1880022206800F055FA10
:1009300022460421684601F072F8A188012220684D
:1009400000F04BFA0020203460710721E171A071A2
:1009500020720F20207138BDFFFFFFFF70B50C46DD
:10096000022205461146FFF76DFFC0086207C0006E
:10097000520F024302231946284600F068F820353A
:10098000AC7170BD70B50C46022205461146FFF7EA
:1009900059FF07210902884361074A0D02430223D8
:1009A0001946284600F053F82035EC7170BD70B53B
:1009B0000C46054602220121FFF744FF07214903A7
:1009C000884361070A0C024302230121284600F0F4
:1009D0003EF820356C7170BD70B50C46022205469C
:1009E0001146FFF72FFF012109038843E107CA0CD5
:1009F000024302231946284600F029F820352C72BC
:100A000070BD70B50C46054602220121FFF71AFFA2
:100A1000000922070001120F024302230121284688
:100A200000F015F820352C7170BD70B50D4602220E
:100A300004461146FFF706FF20218843E9078A0E86
:100A4000024302231946204600F001F870BD38B574
:100A50000546002000904807800E694608701C4635
:100A6000D0B2012B06D01104090E022C04D0032CA5
:100A700006D00AE0487008E06A469070517004E0C1
:100A80006B46D8709970100C5870A988002228689D
:100A900000F0A3F9641CE1B22A46684600F0BFFFEB
:100AA000A9880122286800F098F938BDD2B057A073
:100AB0000068574C109000252046A57155492038F4
:100AC00008220160828020220161828281601021DF
:100AD00081810921C906816191028183FFF71EFF8F
:100AE00002E0322000F0A8F849482038FFF7E4FE81
:100AF0000028F6D146482038FFF710FF657107211E
:100B0000E171A57125720F20207141482038FFF74F
:100B100039FF3F48217A2038FFF75EFF3C482179B2
:100B20002038FFF76EFF3A4861792038FFF73FFF22
:100B3000374801212038FFF778FF10AE00253448F0
:100B4000715D2038FFF70AFF0A2000F075F8304881
:100B5000032211462038FFF775FE02E0012000F065
:100B60006BF82B482038FFF7CDFE0028F6D0284838
:100B7000032211462038FFF765FEA90005AA02915D
:100B8000505001F087FEEF0008AAD21903C2029963
:100B900005A8405801F090FE0CAAD2196D1C03C2A2
:100BA000EDB2022DCBD30925ED060821284600F031
:100BB0000CF901221102284600F00FF9E179012019
:100BC00088400F9904900E98039102900B990A980F
:100BD0000191009010A111A8069A01F089F911A8BD
:100BE000FFF7E7FA82B27D270948FF003B4611A9CB
:100BF000C43000F0A7FDFF2100220131284600F09B
:100C0000ECF8384600F018F898E700000001000002
:100C100030000020000400484144323D2025782067
:100C20002C252E3366206D7620252E3166206720F8
:100C30006761696E3D25640070B5044600F0D4F824
:100C40000546601C02D004480078241800F0CCF857
:100C5000401BA042FAD370BD00000020FCB5002369
:100C600001249CE027462A469F403A4073D04D68B5
:100C7000012D05D0022D03D0112D01D0122D16D13A
:100C800085680326AC465D00AE46AE406546B5437A
:100C9000AC46CE687546AE4065462E4386604668D3
:100CA0000D79BE43ED06ED0F9D4035434560C668A6
:100CB0005F000325BD40AE46AE4335468E68BE405C
:100CC0002E43C6604E68022E01D0122E14D1DE08CB
:100CD000B60036180196366A5D07B446EE0E0F254B
:100CE000B54000966646AE43B4460D69009EB540D9
:100CF00066462E43019D2E6206687546AE430D7909
:100D0000AD07AD0FBD40354305604D68ED0045D5DD
:100D1000264DAE692643AE61AD699E08ED07ED0F25
:100D20000095234DB6007519AC46AD689E07360F89
:100D30000F27B740BD430927FF06B84201D100275E
:100D40000BE01C4FB84201D1012706E01A4FB84210
:100D500002D1022701E021E00527B7402F43654675
:100D6000AF60164E35684F689543FF0300D51543B5
:100D7000356075684F689543BF0300D515437560AE
:100D8000B5684F689543FF0200D51543B560F56817
:100D90004F689543BF0200D51543F5605B1C0A6898
:100DA0001546DA4000D05DE7FCBD000000100240AF
:100DB0000000014000040048000800480004014011
:100DC0000069084000D001207047426913460B407B
:100DD0001B0491430B4383617047002A01D081615A
:100DE00070478162704700000148806870470000CA
:100DF00000000020024881680278891881607047ED
:100E00000000002010B5064801681022114301605F
:100E1000002000F007F800F027F8002010BD0000C7
:100E20000020024070B504460D4D7D202978C00099
:100E3000FFF756F901460B480068FFF751F900F03B
:100E400037FB002809D1042C07D200222146401E7E
:100E500000F01EF800206C6070BD012070BD000025
:100E6000000000200C00002008B50848816901221C
:100E700011438161816911400091C26901040A43F3
:100E8000C261C0690840009008BD00000010024027
:100E900010B501F071F810BDF8B505460068354C85
:100EA000C00352D5E0690026C00007D4E1692004E0
:100EB0000143E161E1690140012600912E4801688A
:100EC000C90510D40168821511430160FFF78CFF3A
:100ED000074604E0FFF788FFC01B642824D8264893
:100EE0000068C005F6D5206A03273F02384020D0AD
:100EF0006968394081421CD0206A226AB8430121C6
:100F000009040A432262226A8A4322622062C007DD
:100F10000FD0FFF769FF009008E0FFF765FF009929
:100F2000411A1648814201D90320F8BD206A800782
:100F3000F3D5206A6968B84308432062002E04D0C4
:100F4000E169012000078143E1612878C00705D0ED
:100F5000206BA968800880000843206328788006F9
:100F600005D5206B10218843E968084320630020E1
:100F7000F8BD00000010024000700040881300001F
:100F8000F8B50F46060059D03A4D2868C007C00F83
:100F9000B84209D2286840084000384328602868D1
:100FA000C007C00FB84249D13068334C81070CD517
:100FB000400704D560680721090208436060606843
:100FC000F0218843B168084360603078C00726D0BC
:100FD000706801280ED0216802280ED089070029E8
:100FE0002CDA61688908890001436160FFF7FCFE23
:100FF00000900DE021688903F1E78901EFE7FFF731
:10100000F3FE0099411A1D48814201D90320F8BD21
:1010100060680C210840716889008842EFD1286817
:10102000C007C00FB8420BD92868400840003843B9
:1010300028602868C007C00FB84201D00120F8BD61
:101040003078400706D56068072109028843F168B7
:101050000843606000F028F86168094A0906090F32
:10106000515CC840074908600020FFF7DBFE002004
:10107000F8BD00000020024000100240881300006C
:10108000002900080C000020044805490068496850
:10109000044A4905490F515CC84070470C000020C4
:1010A000001002401029000810B514A30FCB88B01F
:1010B0006C460FC415A30FCB0FC4184A51680C20FF
:1010C0000B4603401648042B16D0082B14D18B0274
:1010D0001B0F6C46E45CD26A04AB1207120F9A5CD9
:1010E000C90305D500231946FFF710F8214601E092
:1010F00020460C4900F027FF08B010BD020304058C
:10110000060708090A0B0C0D0E0F1010010203044C
:1011100005060708090A0B0C0D0E0F1000100240FF
:1011200000127A0000093D00FEB5040070D020785E
:10113000DC4DC0074AD068680007800F012807D03F
:1011400068680007800F022809D16868C00306D5C7
:10115000286880033AD560680028E7D036E06168E7
:10116000012914D001208004002901D0052914D0C0
:101170002A68012109048A432A6029688143296079
:101180006068002816D0FFF72FFE06460EE028689C
:101190000121090408432860F2E729680143296016
:1011A000F5E7FFF721FE801B64286ED828688003CE
:1011B000F7D50BE0FFF718FE064604E0FFF714FE34
:1011C000801B6428F1D828688003F7D42078012692
:1011D000800700283CDA68680007800F07D068683D
:1011E0000007800F022809D16868C00306D4286868
:1011F000800716D5E06801280AD112E0E0680028CF
:10120000286816D030432860FFF7EEFD074605E05A
:1012100043E1FFF7E9FDC01B0228C6D82868800714
:10122000F7D52868F82188432169C9000843286058
:101230000EE0400840002860FFF7D6FD074604E0B6
:10124000FFF7D2FDC01B0228AFD828688007F7D46B
:101250002078000722D5E0690028686A0ED0304364
:101260006862FFF7C1FD074604E0FFF7BDFDC01B44
:1012700002289AD8686A8007F7D50FE04008400036
:101280006862FFF7B1FD074605E09DE0FFF7ACFDA2
:10129000C01B022889D8686A8007F7D42078042701
:1012A0004007002860DA00200190E869C00008D4F7
:1012B000E969B8060143E961E9690140012000914B
:1012C000019079480168C90511D40168821511435C
:1012D0000160FFF789FD009005E0FFF785FD0099AB
:1012E000401A642870D870480068C005F5D5A06819
:1012F00001280AD0002801D0052810D0286A40080B
:1013000040002862286AB84301E0286A3043286216
:10131000A068002812D0FFF767FD00900AE0286A55
:1013200038432862F1E7FFF75FFD0099411A5F48F3
:10133000814249D8286A8007F5D50DE0FFF754FDB2
:10134000009006E0FFF750FD0099411A574881428E
:101350003AD8286A8007F5D40198002804D0E969B2
:10136000012000078143E9612078C00635D5606916
:1013700001280CD0401D686B23D038436863686B2C
:10138000400840006863FFF72FFD064622E0686BC7
:1013900038436863686B30436863FFF725FD064692
:1013A00004E0FFF721FD801B02285BD8686B8007F3
:1013B000F7D5686BF8218843A169C90008436863C1
:1013C0000BE0B8436863F4E74CE0FFF70DFD801BCA
:1013D000022847D8686B8007F7D4206A00285ED0BF
:1013E00069680907890F022942D0012636060228BA
:1013F000286805D0B0432860FFF7F6FC044633E0C8
:10140000B0432860FFF7F0FC074604E0FFF7ECFC70
:10141000C01B022826D828688001F7D4E86AE16A50
:10142000000900010843E862616AA06A084369682C
:101430003D221204914308436860286830432860C5
:10144000FFF7D2FC044604E0FFF7CEFC001B0228A5
:1014500008D828688001F7D521E0FFF7C5FC001BFC
:10146000022801D90320FEBD28688001F5D416E0CA
:101470000128F8D06868E96A01221204636A024010
:101480009A420AD10907E26A090F914205D10F2158
:1014900089040840A16A884201D00120FEBD0020D5
:1014A000FEBD0000001002400070004088130000E4
:1014B000094910B5401E884201D9012010BD074CD2
:1014C00060610321081F00F057FD0020A061072084
:1014D0002061002010BD0000FFFFFF0000E000E0E1
:1014E000F0B502462032137F012B1ED0012515775F
:1014F0000223537706687468B3687027BC430F688B
:101500002743776000680A4CA04205D0AC07A04290
:1015100002D0084CA04204D180244968A343194357
:101520008160557700201077F0BD0220F0BD0000EB
:10153000002C01400004004070B5040005D0254691
:101540002035687F002802D006E0012070BD002011
:101550002877204600F014F802206877211D2068C3
:1015600000F0D8FA01204034A071A877E877207005
:101570006070A070E070207160716877002070BDAD
:1015800008B500680549884207D10548C2690221AB
:101590000A43C261C0690840009008BD00040040D1
:1015A00000100240F8B5054604462035287F012882
:1015B00017D001262E770220687722689068772757
:1015C000FF23B8431B02984390600A68502A31D029
:1015D0000EDC202A4BD006DC002A48D0102A3AD153
:1015E00045E00220F8BD302A41D0402A33D136E010
:1015F000602A27D0702A12D001200003121A2AD0A4
:10160000824228D1CB684A688968206800F0C4FA11
:101610002068816801229203114381601BE0CB683E
:101620004A688968206800F0B7FA216888683843FA
:10163000886010E0CA684968206800F0C0FA50214C
:10164000206806E0CA684968206800F0C9FA60218D
:10165000206800F0ACFA6E7700202877F8BDCA68E1
:101660004968206800F0ABFA40212068F1E7114694
:101670002068EEE710B5040003D0A06F002802D068
:1016800007E0012010BD002174200155204600F024
:1016900027F82420A06720680168490849000160F4
:1016A000204600F047FB0128ECD0606A002802D0F9
:1016B000204600F0A8FA206841680922D20291432E
:1016C0004160206881682A22914381602068016816
:1016D000012211430160204600F0FAFA10BD00001B
:1016E00010B586B0044614216846FEF757FD13492D
:1016F000206888421FD112488269012189030A4368
:10170000826182690A4005924269C9000A434261C6
:10171000406908400590032040020090022001909B
:1017200000200290032003900120049009206946C4
:10173000C006FFF793FA06B010BD00000038014064
:1017400000100240FFB50446806F83B017460D4677
:1017500020285ED1002D0AD0002F08D0A168C0013A
:10176000814207D12069002804D1E80702D0012076
:1017700007B0F0BD204660300090007D012848D0C1
:101780000098012101750020802108512120A067C7
:10179000FFF72AFB264640360190378277820120E8
:1017A000A1680003814202D12069002805D02F469C
:1017B000002500990020087511E00027F9E70022B4
:1017C0008021204600F044FB002815D1002F15D0C1
:1017D0002168387808857F1C708A401E7082708A64
:1017E000019B002806980090E9D100224021204664
:1017F00000F02EFB002808D00320B9E728882168D4
:10180000C005C00D0885AD1CE6E72020A0670020BC
:10181000AEE70220ACE7FEE7F0B587B014216846DA
:10182000FEF7BCFC2F484269012149040A4342618A
:1018300042690A400592426949000A43426140698F
:1018400009270840FF060590002227493846FFF780
:10185000C4FA0022E8212548FFF7BFFAFF200E3026
:1018600000240125009002946946019503943846AE
:10187000FFF7F4F90220009001946946029438467B
:10188000FFF7ECF9E80303260090694603960195FB
:1018900002943846FFF7E2F9082000900195694666
:1018A000039502941148FFF7D9F910200090019494
:1018B000694602940D48FFF7D1F92020009069464F
:1018C0000396019502940948FFF7C8F9C0200090DB
:1018D00002946946019503940448FFF7BFF907B0E5
:1018E000F0BD0000001002400DF1000000040048AF
:1018F00010B586B000240094164801940294039415
:1019000004941349059401600921846041600461D5
:1019100011498461C160FFF70FFE002801D072B643
:10192000FEE701200003009069460A48FFF73AFEEF
:10193000002801D072B6FEE7049404A90548059476
:10194000FFF7CEFD002801D072B6FEE706B010BD4D
:1019500000040040AC000020FFFF000010B50C4860
:101960000A4901604B21C901416000218160C160C9
:1019700001618161C1610C22016242614162FFF734
:1019800079FE002801D072B6FEE710BD0038014094
:10199000F4000020FEE77047F7B514460026918B4F
:1019A000906982B035460122FFF717FA00BFA1887F
:1019B00001222068FFF711FA00BFA18800222068E9
:1019C000FFF70BFA00BF20E00027A18B0022A069DF
:1019D000FFF703FA6806050E00BFA189A068FFF7AC
:1019E000EFF90090A18B0122A069FFF7F6F90098AA
:1019F000002801D00120054300BF7F1CFFB2082F43
:101A0000E3D302988555761CF6B203988642DBD361
:101A1000A18801222068FFF7E0F905B0F0BDF7B515
:101A20001446918B906900250122FFF7D6F900BF7B
:101A3000A18801222068FFF7D0F900BFA188002209
:101A40002068FFF7CAF900BF1FE000980026475D35
:101A5000A18B0022A069FFF7C0F9F809A18A2069CB
:101A600001D0012200E00022FFF7B7F900BFA18BEF
:101A70000122A069FFF7B1F900BF7806761C070EB6
:101A8000F6B2082EE4D36D1CEDB201988542DCD38A
:101A9000A18801222068FFF7A0F9FEBD704710B5AC
:101AA000FFF7A8F910BD30B595B030216846FEF7B4
:101AB00075FB00240F9402200D940E940090129454
:101AC0000125139410200C94039504901094119404
:101AD00008946846FFF728FB002801D072B6FEE79D
:101AE00007200C900D940E9400210F940CA8FFF782
:101AF00047FA002801D072B6FEE710A8109512949C
:101B0000FFF7CAF9002801D072B6FEE715B030BD64
:101B100070470000F0B502681A4B0124A4071A4D63
:101B2000984203D0A04201D0A84203D17026B2430C
:101B30004E683243154E164F98420AD0A04208D044
:101B4000A84206D0134CA04203D0B04201D0B84204
:101B500004D103242402A243CC6822438024A2435C
:101B60004C69224302608A68C2620A6882629842B3
:101B700003D0B04201D0B84201D10969016301210B
:101B80004161F0BD002C01400004004000440140D0
:101B9000004801400020004030B58468FF252D0238
:101BA0001B021343AC430B432343836030BD826865
:101BB00070239A430A4307210A438260704730B575
:101BC000036A046A6408640004628469F025AC4313
:101BD000120122430A24A3430B438261036230BDF6
:101BE00030B5036A1024A34303628469036A0F2596
:101BF0002D031203AC432243A024A343090119433C
:101C00008261016230BD10B5818CC90707D00168BF
:101C10004A6801235B049A43836A1A434A60818CB1
:101C2000890707D501684A6801231B049A43C36AE0
:101C30001A434A60818C490707D501684A68012325
:101C40009B049A43036B1A434A60818C090707D5AA
:101C500001684A680123DB039A43436B1A434A60D5
:101C6000818CC90607D50268916801231B0399433B
:101C7000836B19439160818C890607D501688A6856
:101C800001235B039A43C36B1A438A60818C490624
:101C900012D503685A6801210905046C8A4322435E
:101CA0005A60026C8A4207D10268516803235B05BF
:101CB0009943436C19435160818C090607D501682B
:101CC0004A680123DB04806C9A4302434A6010BDDA
:101CD000F8B50446002680300660FFF785F8054613
:101CE00020680068124F000709D501212B46002209
:101CF00049052046009700F0ABF800280DD1206878
:101D0000006840070BD501212B460022890520469B
:101D1000009700F09DF8002801D00320F8BD202096
:101D2000A067E0672666603426750020F8BD0000D5
:101D3000FFFFFF0170B5044680682169E26908432E
:101D4000616900251143084321680A683C4B1A4029
:101D500002430A6021684868032212039043E26844
:101D600010434860A169206A084321688A680B23F0
:101D70001B029A4302438A603248006B8007800F3F
:101D800016D0012818D0022818D0032812D010210C
:101D90000120E369C0032C4A2C4E83422BD1002939
:101DA0000ED002290FD004290FD008293FD110E00E
:101DB0000021EDE70221EBE70421E9E70821E7E74D
:101DC000FFF762F903E0104603E0FFF76DF9002822
:101DD00031D0616840004A088018FEF781F980B26E
:101DE00001461039B14222D81849491C0140000768
:101DF000400F08431DE0002906D0022907D004291E
:101E000007D0082913D108E0FFF73EF903E0104698
:101E100003E0FFF749F900280DD061684A0810185F
:101E2000FEF75EF980B201461039B14201D90125B1
:101E300001E02168C86000206066A066284670BD89
:101E4000F369FFFF0010024000127A00EFFF00006C
:101E5000FFB581B005460F46044660350A9E39E05D
:101E6000701C37D0FEF7C0FF0499401AB04222D848
:101E7000002E20D02068016849072BD5C069C043D7
:101E8000000527D401202168C0020862206801688B
:101E9000FF22A1329143016020688168490849000E
:101EA00081602020A067E0678034206000202875D2
:101EB000032005B0F0BD20680168FF22A1329143E4
:101EC0000160206881684908490081602020A0677E
:101ED000E067EBE72068C1693846884305D00021F8
:101EE00003988142BCD00020E3E70121F8E700001D
:101EF0000FB410B504A9074B02AA039800F028F903
:101F0000044602A9002000F0BFFC204610BC08BC1B
:101F100004B01847892800082021020C01D01021A4
:101F20001046020A01D010460839020901D01046B5
:101F3000091F820801D01046891E420801D0881E60
:101F40007047081A7047F8B5040C8BB2264682B267
:101F50005E430D0C1046370C58433604801900219F
:101F6000794116466E43370C36048019794126466E
:101F70006E438919F8BD00008307FF22DB0E9A40EB
:101F80008907090E9940002808DB830809489B004F
:101F90001B18186890430843186070470007000F2B
:101FA0000838830804489B001B18D86990430843ED
:101FB000D861704700E400E000ED00E002E008C8EE
:101FC000121F08C1002AFAD170477047002001E0B3
:101FD00001C1121F002AFBD170470000F0B51FB4E9
:101FE00086B00998089A030D0021024314D0514885
:101FF000514A1818504305141198012810981AD006
:10200000281A401C00264D4F4D490096019104901E
:10201000002812DA444211E01198012449A3012852
:1020200001D11098C1430698119A84600360C26080
:1020300041600BB0F0BD4042E4E7044621050020BA
:102040003F4A001C51410391029012E0E00707D083
:1020500032463B4601990098FEF75CFA01910090E8
:1020600032463B4610461946FEF754FA06460F46DE
:102070006410002CEAD10498039B0028029A099965
:10208000089806DAFEF746FA019B009AFEF742FA34
:1020900005E0FEF7A7FA019B009AFEF7A3FA0446B3
:1020A0000E460022284BFEF735FB03D80020C04324
:1020B000014607E00022254B20463146FEF778F91D
:1020C000FEF708FB102409E0002C0ADB0A2200239B
:1020D000FEF71CF8079B30321A55641E02460A436D
:1020E000F2D11122641C079B121B1C19119B012B9E
:1020F00003D0012308430ED10AE0084304D0112085
:1021000010900020119077E71098151A6D1E0BE0C3
:102110001098824202DD00236D1C03E0824201DA46
:1021200000236D1E002BEED0069811998260C160CD
:1021300030C07EE701FCFFFF104D0000000014409E
:102140000000F03F300000000000F0430000E03FDE
:10215000FFB597B00646002518E2252877D1002460
:102160002746FD49049400E00443761C32780120A0
:10217000203A90400842F7D130782A280ED0022227
:10218000307801463039092916D804990A23594371
:10219000303940181443761C0490F1E7189802C8AF
:1021A00004911890002904DA0120400304434842B6
:1021B000049002200443761C30782E2814D1042089
:1021C00004437078761C2A2809D11898761C80C898
:1021D000189009E00A214F43303FC719761C307828
:1021E000014630390929F5D930786C2810D006DC41
:1021F0004C281AD068280ED06A2817D104E0742819
:1022000013D07A2812D110E00120400504430CE0DD
:102210000121090501E0032109050C437178814280
:1022200003D1012000052418761C761C307811900B
:1022300066280BD013DC58287DD009DC00287BD021
:102240004528F6D04628F4D047281AD1A5E118E051
:10225000632835D0642870D0652812D19DE170289C
:102260006CD008DC6728F1D069287BD06E280DD0AF
:102270006F2806D1BAE073282ED0752871D078283F
:1022800059D01A9A199990476D1C7EE16002400F4F
:10229000022809D003280DD00428189801680DD011
:1022A0000D60001D189070E11898EA1701680D6024
:1022B0004A60F6E7189801680D80F2E70D70F0E7C4
:1022C00018986A4601781172001D1890002050720B
:1022D00002A80090012005E0189802C8189000207C
:1022E0000091C04361070DD5002101E00199491C0F
:1022F0000191B94212DA8142F8DB009A515C00295F
:10230000F4D10BE0002101E00199491C01918142C7
:10231000FADB019A0099895C0029F5D101990498AA
:102320001A9B471A21463846199A00F097FA0199E4
:10233000401945180BE04FE02CE113E04EE0009807
:1023400000990078491C00911A9A199990470198B0
:10235000401E0190401CF2D1214638461A9B199A22
:1023600010E137E00A200021009001916002410F46
:10237000022907D0189A01CA1892C2179446032955
:1023800008D00AE01898C01DC108C90005C91891F5
:10239000944607E000B2C2179446042902D140B225
:1023A000C1178C4600226146944506DA0A46002190
:1023B000404291418C462D2102E0210504D52B217C
:1023C0006A461173012103E0E10701D02021F7E7FC
:1023D000029155E00A200AE0102008E01020009049
:1023E0000021042004430191082703E00820002174
:1023F000019100906002410F022907D0189A01CA8A
:10240000189200229446032908D008E01898C01DAD
:10241000C108C90005C91891944603E080B2042997
:1024200000D1C0B200210291210729D5119970294C
:1024300006D0009A1021019B4A401A4305D00EE0B5
:1024400040216A461173012108E06146014306D02C
:1024500030216A4611731199517302210291009A39
:102460000821019B4A401A430AD16146014301D128
:10247000610705D530216A46117301217F1E029143
:102480001199582904D035A10E910DA90D910DE097
:1024900037A1F9E76146019B009AFDF737FE0E9BD5
:1024A0008C469B5C0D9A521E0D921370614601433F
:1024B000F0D10D9805A9081A20300190600703D5C6
:1024C00001200004844300E001270198874201DDD8
:1024D000381A00E00020019900904118029809186C
:1024E0000498401A0490E00306D421461A9B199AD6
:1024F000049800F0B3F94519002706E003A81A9ADA
:10250000C05D199990476D1C7F1C02988742F5DBCE
:10251000E0030CD521461A9B199A049800F09EF905
:10252000451904E01A9A3020199990476D1C0099BA
:10253000481E00900029F5DC08E00D980D99007800
:10254000491C0D911A9A199990476D1C0199481EC2
:1025500001900029F1DC63E10928010030313233B8
:1025600034353637383961626364656600000000CF
:1025700030313233343536373839414243444546B9
:102580000000000000F05AF94519761C3078002848
:1025900000D0E2E528461BB0F0BD600700D4062756
:1025A0001898C01DC108C90048680A680831C30FDF
:1025B000DB071891190001D09CA108E0210501D585
:1025C0009BA104E0E10701D09AA100E09AA1430099
:1025D00011985B08109165280CD006DC452809D0BD
:1025E00046281DD0472841D141E0662818D06728E9
:1025F0003CD13CE00021112F01DB112000E0781CD0
:102600000191009008A911A8FFF7E8FC1399059122
:102610000021119A15927F1C12980197009150E0A9
:102620000120C00703900120019008A9009711A87C
:10263000FFF7D4FC139A149905920022119B009283
:1026400012981593059A0192002901D0104602E0D4
:10265000791C40180190381A01D5019804E04042D5
:10266000401E0090781C0190C01B029043E0012F97
:1026700000DA01270021112F01DD112000E038468A
:102680000191009008A911A8FFF7A8FC13990591E2
:10269000119A0021129815920091019721070CD4EC
:1026A0000599B94201DB019900E00191012904DD9E
:1026B000159A491E515C302906D0B84201DA011D35
:1026C00005DA0121029115E00199491EEDE7002884
:1026D00005DC0099411800910199091A03E0019A5B
:1026E000411C914200DD01910099401A401C02906A
:1026F0000120C0070390200706D402990198814267
:1027000002DB0020C043029000206946C87707AF73
:10271000012103980337C907884224D00220119071
:102720002B201290039800280CDA404203902D20B1
:10273000129007E00A210398FDF7D2FC30317F1E8A
:10274000039039701199481E11900029F2DC03980A
:102750000028EFD1791E12980870307820210840A7
:102760004530BF1E387006A8C01BC01D03901098CE
:102770000078002800D00120019941180298C01764
:102780000918039809180498401A401E0490E003A1
:1027900006D421461A9B199A049800F05FF845194F
:1027A00010980078002803D01A9A199990476D1C48
:1027B000E00324D521461A9B199A049800F04EF89C
:1027C00045191CE00098002807DB0099059888420D
:1027D00003DD1598405C199901E0199930201A9A87
:1027E000904700986D1C401C00900298401E02907B
:1027F000002804D11A9A2E20199990476D1C01992E
:10280000481E01900029DDDC05E038781A9A7F1C0B
:10281000199990476D1C0399481E03900029F4DC18
:1028200021461A9B199A0498ACE600002D0000007E
:102830002B0000002000000000000000F8B5044656
:1028400000251E461746880404D405E0394620209A
:10285000B0476D1C641EF9D52846F8BDFFB5044687
:10286000002581B01E46C80301D5302700E020278F
:10287000880404D505E038460399B0476D1C641EF2
:10288000F9D5284605B0F0BD0A68531C0B601070DE
:1028900070470000012110B5C905401AFDF717FD6A
:1028A0000449FDF78DFC1D21C943FDF704FDFDF72B
:1028B00019FD10BD00404E45084910B5401A0121D0
:1028C000C905401A064CFDF702FD0649FDF778FCE4
:1028D0002146FDF7B2FCFDF705FD10BD7D2E000081
:1028E000A010C44800007A44FEF78CFAFFF7DBF82A
:1028F000FEF792FFFFF732F8FEF7FAFFFEF7D6F881
:10290000000000000000000001020304060708099F
:102910000000000001020304382900080000002024
:1029200010000000BC1F000848290008100000200B
:1029300068050000CC1F0008010000000400000032
:082940000000000000127A0003
:04000005080000B13E
:00000001FF
